:10000E001203D112043B8F287E00EF6401700CE5C1
:10001E002770047D0180027D008D27EF64024E70F3
:10002E0006F525F524F526E52864037033E525FD50
:10003E007C00E4FF1203717F057E001203FEE524AF
:10004E00FD7C007F011203717F057E001203FEE529
:10005E0026FD7C007F021203717F057E001203FED7
:10006E00E52864047014FF12031A8F257F01120312
:10007E001A8F247F0212031A8F26E52575F00A8443
:10008E00FD7C007F01120429E52575F00A84E5F058
:10009E00FD7C007F021204297D0B7C007F0312047D
:1000AE0029E52475F00A84FD7C007F04120429E5FD
:1000BE002475F00A84E5F0FD7C007F051204297D8D
:1000CE000B7C007F06120429E52675F00A84FD7C60
:1000DE00007F07120429E52675F00A84E5F0FD7C01
:0900EE00007F0812042902001130
:1002B500E527602E0526C3E5269464748094804066
:1002C50021E4F5260524E524943C748094804012AD
:1002D500E4F5240525E525943C748094804003E4E9
:0302E500F52522DA
:03000B000200F7F9
:1000F700C0E0C0F0C083C082C0D075D000C000C0CF
:0D01070001C002C003C004C005C006C0074F
:10011400758A18758CFC051FE51F7002051EC394B3
:1001240014E51E94004009751E00751F0012027527
:100134000521E52170020520C39402E520940040C6
:10014400097520007521001203950523E52370022B
:100154000522C3940AE52294004009752200752300
:04016400001202B5CE
:10016800D007D006D005D004D003D002D001D000EB
:0B017800D0D0D082D083D0F0D0E03295
:1003FE00EF1FAC0670011E4C600A7D027CEFDCFE26
:04040E00DDFC80ECA5
:0104120022C7
:1003B4000909000A0A0A0A0A0A0A0A0C123F065B19
:0C03C4004F666D7D077F6F00400108014F
:09042900AE0574092FF8A60622A5
:10020F00E4F580EF14B40800505490022775F00302
:10021F00A4C58325F0C5837302023F020243020285
:10022F004702024B02024F02025702025F020267AD
:10023F00D2A4800ED2A48012D2A48016D2A4801A87
:10024F00C2A4D2A3D2A28016C2A4D2A3C2A2800EED
:10025F00C2A4C2A3D2A28006C2A4C2A3C2A2741215
:06026F002DF8E6F58022E7
:1003950074092508F8E6FD7C00AF0812020F050870
:0E03A500C3E508940974809480400375080134
:0103B3002227
:05043B00E4AF2BF52BDE
:010440002299
:1003E800E4FF20B1010F20B0027F0220B2027F0398
:0503F80020B3027F04A8
:0103FD0022DD
:1002750085292A1203E88F29AF2A7E00EF640170D1
:1002850007E5297003752B01EF64024E7007E52918
:100295007003752B02E52A64037007E52970037561
:0F02A5002B03E52A64047007E5297003752B0409
:0102B4002227
:1003D1005389F0438901758A18758CFCC28DD28CC2
:0703E100D2A9D2AFC2B9227C
:100371008F2C8C2D8D2E1204327FA01202E81204D4
:1003810013AF2C1202E8120413AF2E1202E812046A
:040391001302000350
:02031A008F2C26
:10031C001204327FA01202E8120413AF2C1202E86E
:10032C001204131204327FA11202E81204131203F6
:0D033C004A8F2D7F0112041F120003AF2D08
:010349002291
:09043200D2A0D2A1C2A0C2A122F5
:07000300C2A0D2A1D2A0228D
:0202E800AD0760
:1002EA00E4FBEBC394087480948050237E007480EE
:1002FA00A803088006CEA2E713CE13D8F8FFEDF5BF
:0F030A0082EF558224FF92A0D2A1C2A10B80D313
:0103190022C1
:10034A00E4FFD2A0FEEEC39408748094805017D2C2
:10035A00A130A00DA8067480088002C313D8FC42FD
:06036A0007C2A10E80DFB6
:01037000226A
:0A041F00EF24FF92A0D2A1C2A12297
:0B041300D2A0D2A1A2A0E433FFC2A13E
:01041E0022BB
:0300000002018377
:0C018300787FE4F6D8FD75812E0201CAD9
:10018F0002000EE493A3F8E493A34003F68001F278
:10019F0008DFF48029E493A3F85407240CC8C33371
:1001AF00C4540F4420C8834004F456800146F6DF40
:1001BF00E4800B01020408102040809003B4E47E19
:1001CF00019360BCA3FF543F30E509541FFEE49335
:1001DF00A360010ECF54C025E060A840B8E493A3FC
:1001EF00FAE493A3F8E493A3C8C582C8CAC583CA27
:1001FF00F0A3C8C582C8CAC583CADFE9DEE780BEDF
:0103D000002C
:00000001FF
