:1000E80000080A020C020D020F0211041602140283
:1000F80011040A0411020F020D020C020A020C027A
:100108000D020F0211040F020D020C020A020C026A
:0D0118000D020C020A0209020C020004FF95
:10009A00204A0A0000F88CF8F3F95BF9B8FA15FA65
:1000AA0067FAB9FB04FB4BFB90FBCFFC10FC44FC4A
:1000BA0079FCACFCDCFD09FD34FD5CFD82FDA6FD8E
:1000CA00C8FDE8FE06FE22FE3DFE56FE6EFE85FED9
:0D00DA009AFEAEFEC1FED3FEE4FEF4FF036D
:1001590012018AE5089000E893FFF460208F0905F1
:1001690008E5089375F07DA4FFAEF01201A105081A
:10017900C28C7F057E001201A1D28C80D6C28C80F0
:01018900FE77
:03000B00020125CA
:10012500C0E0C0D075D000C000C006E50925E024B8
:100135000AF8E6FE08E64E6012E50925E0240AF80D
:10014500E6FE08E6F58AEEF58CB2A5D006D000D01D
:04015500D0D0E032F4
:1001A100EF1FAC0670011E4C600A7D027CEFDCFE85
:0401B100DDFC80EC05
:0101B5002227
:10018A005389F0438901758A18758CFCC28DD28C0B
:07019A00D2A9D2AFC2B922C5
:0300000002000EED
:0C000E00787FE4F6D8FD758153020055A0
:10001A00020159E493A3F8E493A34003F68001F2A2
:10002A0008DFF48029E493A3F85407240CC8C333E7
:10003A00C4540F4420C8834004F456800146F6DFB6
:10004A00E4800B010204081020408090009AE47EAC
:10005A00019360BCA3FF543F30E509541FFEE493AB
:10006A00A360010ECF54C025E060A840B8E493A372
:10007A00FAE493A3F8E493A3C8C582C8CAC583CA9D
:10008A00F0A3C8C582C8CAC583CADFE9DEE780BE55
:0100E7000018
:00000001FF
